:020000020000FC
:020000021000EC
:06E000000C9446F0189597
:02E00800189569
:02E00C00189565
:02E01000189561
:02E0140018955D
:02E01800189559
:02E01C00189555
:02E02000189551
:02E0240018954D
:02E02800189549
:02E02C00189545
:02E03000189541
:02E0340018953D
:02E03800189539
:02E03C00189535
:02E04000189531
:02E0440018952D
:06E048000C9436F118955E
:02E05000189521
:02E0540018951D
:02E05800189519
:02E05C00189515
:02E06000189511
:02E0640018950D
:02E06800189509
:02E06C00189505
:02E07000189501
:02E074001895FD
:02E078001895F9
:02E07C001895F5
:02E080001895F1
:02E084001895ED
:02E088001895E9
:10E08C0000E10EBF0FEF0DBFF89400E001E005BFFB
:10E09C0002E005BF00EC05BF00E000936D0000E05E
:10E0AC0000936C00A89501B5086101BD00E001BDAD
:10E0BC000BEF01BB0FEF02BB0FE702BB0FE00093AE
:10E0CC00640007E10093650010E000E110939000FC
:10E0DC0009B900E00BB908E90AB906E0009395000C
:10E0EC0000E00093000100930101009302010093F2
:10E0FC00030100931001009312010093110100938E
:10E10C001E0100931D01009314010093150100934F
:10E11C00190100931A0100931C010093180100933C
:10E12C002701009328010093290100933A010E94D2
:10E13C00BBF078940091630004FD0C94A7F00C9450
:10E14C00AEF000E001E005BF00E005BF0C9400005C
:10E15C000E940AF10E94A6F20091030103FF0C94A5
:10E16C00B0F00FEF02BB0C94A7F000E00BBF0895CA
:10E17C000F938F939F93CF93DF93D5E0C0E01091D3
:10E18C001E0100911D01C00FD11F088100932001B9
:10E19C0090911E0180911D01019690931E01809318
:10E1AC001D01DF91CF919F918F910F9108951F9336
:10E1BC00009312010E94F0F010913A011027109375
:10E1CC003A011F9108951F93009312010E94F0F0E1
:10E1DC001F910895AF925D9BFECFA0901201ACB839
:10E1EC00AF900895CF920F93C0909B00C5FEFCCFCB
:10E1FC000091130100939C000F91CF900895009310
:10E20C0013010E94F8F0089500E000933A0106E132
:10E21C000E94DDF00E94DDF00E94DDF00E94DDF036
:10E22C0000E00E94DDF00E94DDF00E94DDF0009124
:10E23C0000000E94DDF0009100000E94DDF003E080
:10E24C000E94DDF000E00E94DDF000E00E94DDF0B5
:10E25C0000E00E94E9F000913A010E94E9F0089573
:10E26C002F920F931F938F939F93CF93DF935F9B6B
:10E27C00FECF2CB0209210010091000106FDF9C0D8
:10E28C00009111010030F1F0013091F1023071F088
:10E29C00033071F0043071F0053071F0063071F01C
:10E2AC00073071F00C9436F20C943FF20C949CF104
:10E2BC000C94ACF10C94BCF10C94CCF10C94DCF1FE
:10E2CC000C94F9F100911001063161F700E0009314
:10E2DC0015010093140100931C0100933A01009165
:10E2EC0011010395009311010FE302BB0C943FF253
:10E2FC00009110010631C1F20030A1F610913A01E3
:10E30C00102710933A0100911C01039500931C01F6
:10E31C00033050F20091110103950093110100910B
:10E32C0000010062009300010C943FF20091100177
:10E33C000093160110913A01102710933A010091A5
:10E34C0011010395009311010C943FF200911001FF
:10E35C000093170110913A01102710933A01009184
:10E36C0011010395009311010C943FF200911001DF
:10E37C000093180110913A01102710933A01009163
:10E38C0011010395009311010C943FF200911001BF
:10E39C000093190110913A01102710933A01009142
:10E3AC0011010395009311010C943FF2009110019F
:10E3BC0000931A0110913A01102710933A01009121
:10E3CC00110103950093110190911901909338015B
:10E3DC0080911A01809339010296909319018093D0
:10E3EC001A010C943FF2D5E0C0E010911501009198
:10E3FC001401C00FD11F209010012882909115019B
:10E40C008091140101969093150180931401009151
:10E41C003801003029F400913901003009F40EC0A4
:10E42C009091380180913901019790933801809334
:10E43C00390100913A01022500933A01009119012A
:10E44C00109115010117A9F400911A0110911401F2
:10E45C00011779F40091000102600F7E0093000116
:10E46C0000E0009315010093140100931101009337
:10E47C001C01DF91CF919F918F911F910F912F9044
:10E48C00189505D004D003D002D001D0089502D045
:10E49C0001D0089505D004D003D002D001D0089546
:10E4AC003F9334E61ED01DD01CD01BD01AD03A9509
:10E4BC00C9F73F9108953F933AE013D012D011D091
:10E4CC0010D00FD03A95C9F73F9108953F9331E0A2
:10E4DC0008D007D006D005D004D03A95C9F73F91A3
:10E4EC0008953F933EEB00003F933F913F933F9144
:10E4FC003A95C9F73F9108953F9331EC00003F9353
:10E50C003F913F933F913A95C9F708953F9334E675
:10E51C0000003F933F913F933F913F933F913A953A
:10E52C00B9F73F9108953F933AE000003F933F9134
:10E53C003F933F913F933F913A95B9F73F9108959F
:10E54C000091000101FF08950E9476F4D5E0C0E02F
:10E55C009091190180911A010297C80FD91F099146
:10E56C00003069F4099110913A01011741F400E06F
:10E57C0000931E0100931D0100933A0102C00C94FC
:10E58C0053F400911801013011F00C9453F40091E4
:10E59C00030100FF10C00091030101FF08C00091AE
:10E5AC00030102FF06C00C9453F40C94E1F20C949A
:10E5BC005EF30C94F6F3000000911601000000913C
:10E5CC00170100000E94BEF000912001003059F0AC
:10E5DC0000E000930301009321010093220101E06C
:10E5EC0000932A0123C00E94BEF0009120010093E9
:10E5FC001B010E94BEF000912001009325010E9496
:10E60C00BEF0009120010093260100E000932A0146
:10E61C0000E000933D0100910301016000930301B0
:10E62C0000E00093280100E00093290100E0009332
:10E63C003A0106E10E94DDF00E94DDF00E94DDF05F
:10E64C000E94DDF000E00E94DDF00E94DDF00E94EF
:10E65C00DDF0009116010E94DDF0009117010E947F
:10E66C00DDF001EA0E94DDF000E00E94DDF005E043
:10E67C000E94DDF000E00E94DDF000912A010E9472
:10E68C00DDF000911B010E94DDF0009125010E943C
:10E69C00DDF0009126010E94DDF000E00E94E9F01F
:10E6AC0000913A010E94E9F00C9453F40C94F9F2A5
:10E6BC0000000E94BEF0009120010030B9F301303F
:10E6CC0009F0EBC00E94BEF00091200100932E01D6
:10E6DC000E94BEF00091200100932F0190912E0119
:10E6EC0080912F01019610912501191749F4109171
:10E6FC002601181729F4009103010260009303010D
:10E70C00B1E0A0E00E94BEF000912001002E0E941A
:10E71C00BEF000912001102EF0912801E09129010A
:10E72C0011E00E946CF490912801809129010296CD
:10E73C009093280180932901129721F7F0912801D9
:10E74C00E0912901E050F1400E94BBF013E00E94DF
:10E75C006CF415E00E946CF411E10E946CF400E082
:10E76C0000932A0100E000933A010FE502BB06E199
:10E77C000E94DDF00E94DDF00E94DDF00E94DDF0D1
:10E78C0000E00E94DDF00E94DDF00E94DDF00091BF
:10E79C0016010E94DDF0009117010E94DDF001EAE4
:10E7AC000E94DDF000E00E94DDF004E00E94DDF04C
:10E7BC0001E00E94DDF000912A010E94DDF0009141
:10E7CC002E010E94DDF000912F010E94DDF000E08F
:10E7DC000E94E9F000913A010E94E9F00C9453F484
:10E7EC00000000E00093030100932101009322013B
:10E7FC0000E000932A0100E000933A010FE502BB10
:10E80C0006E10E94DDF00E94DDF00E94DDF00E9426
:10E81C00DDF000E00E94DDF00E94DDF00E94DDF0F2
:10E82C00009116010E94DDF0009117010E94DDF0AD
:10E83C0001EA0E94DDF000E00E94DDF004E00E949D
:10E84C00DDF002E00E94DDF000912A010E94DDF073
:10E85C00009125010E94DDF0009126010E94DDF05F
:10E86C0000E00E94E9F000913A010E94E9F00FE605
:10E87C0002BB0E944DF2009103010860009303015A
:10E88C00000000E00BB90AB90093950000E000937A
:10E89C009B0000939A0000939D00009100010D7F56
:10E8AC000F7D0F7B0093000100E000931E0100938D
:10E8BC001D0100933A01009315010093140100937C
:10E8CC00110100931C010FE702BB08950091680031
:10E8DC0000FDFCCF0FB710936800E8950FBF0895AB
:10E8EC000F9300916500077F009365000F910895C9
:10E8FC000F93009165000860009365000F910895D7
:00000001FF
